{
  "contractName": "BitXGoldSwap",
  "address": "0x92b9F5759785335Ed50483b181Af63583f2d032E",
  "abi": [
    {
      "anonymous": false,
      "inputs": [
        {
          "indexed": false,
          "internalType": "uint256",
          "name": "amount",
          "type": "uint256"
        }
      ],
      "name": "AddMoreRewardToken",
      "type": "event"
    },
    {
      "anonymous": false,
      "inputs": [
        {
          "indexed": false,
          "internalType": "contract IERC20",
          "name": "token",
          "type": "address"
        },
        {
          "indexed": false,
          "internalType": "uint256",
          "name": "amount",
          "type": "uint256"
        }
      ],
      "name": "Claim",
      "type": "event"
    },
    {
      "anonymous": false,
      "inputs": [
        {
          "indexed": false,
          "internalType": "uint256",
          "name": "amount",
          "type": "uint256"
        }
      ],
      "name": "DepositBitx",
      "type": "event"
    },
    {
      "anonymous": false,
      "inputs": [
        {
          "indexed": true,
          "internalType": "address",
          "name": "previousOwner",
          "type": "address"
        },
        {
          "indexed": true,
          "internalType": "address",
          "name": "newOwner",
          "type": "address"
        }
      ],
      "name": "OwnershipTransferred",
      "type": "event"
    },
    {
      "anonymous": false,
      "inputs": [
        {
          "indexed": true,
          "internalType": "bytes32",
          "name": "role",
          "type": "bytes32"
        },
        {
          "indexed": true,
          "internalType": "bytes32",
          "name": "previousAdminRole",
          "type": "bytes32"
        },
        {
          "indexed": true,
          "internalType": "bytes32",
          "name": "newAdminRole",
          "type": "bytes32"
        }
      ],
      "name": "RoleAdminChanged",
      "type": "event"
    },
    {
      "anonymous": false,
      "inputs": [
        {
          "indexed": true,
          "internalType": "bytes32",
          "name": "role",
          "type": "bytes32"
        },
        {
          "indexed": true,
          "internalType": "address",
          "name": "account",
          "type": "address"
        },
        {
          "indexed": true,
          "internalType": "address",
          "name": "sender",
          "type": "address"
        }
      ],
      "name": "RoleGranted",
      "type": "event"
    },
    {
      "anonymous": false,
      "inputs": [
        {
          "indexed": true,
          "internalType": "bytes32",
          "name": "role",
          "type": "bytes32"
        },
        {
          "indexed": true,
          "internalType": "address",
          "name": "account",
          "type": "address"
        },
        {
          "indexed": true,
          "internalType": "address",
          "name": "sender",
          "type": "address"
        }
      ],
      "name": "RoleRevoked",
      "type": "event"
    },
    {
      "anonymous": false,
      "inputs": [],
      "name": "StopTrade",
      "type": "event"
    },
    {
      "anonymous": false,
      "inputs": [
        {
          "indexed": false,
          "internalType": "uint256",
          "name": "amount",
          "type": "uint256"
        }
      ],
      "name": "Trade",
      "type": "event"
    },
    {
      "inputs": [],
      "name": "ADMIN_ROLE",
      "outputs": [
        {
          "internalType": "bytes32",
          "name": "",
          "type": "bytes32"
        }
      ],
      "stateMutability": "view",
      "type": "function",
      "constant": true
    },
    {
      "inputs": [],
      "name": "DEFAULT_ADMIN_ROLE",
      "outputs": [
        {
          "internalType": "bytes32",
          "name": "",
          "type": "bytes32"
        }
      ],
      "stateMutability": "view",
      "type": "function",
      "constant": true
    },
    {
      "inputs": [
        {
          "internalType": "bytes32",
          "name": "role",
          "type": "bytes32"
        }
      ],
      "name": "getRoleAdmin",
      "outputs": [
        {
          "internalType": "bytes32",
          "name": "",
          "type": "bytes32"
        }
      ],
      "stateMutability": "view",
      "type": "function",
      "constant": true
    },
    {
      "inputs": [
        {
          "internalType": "bytes32",
          "name": "role",
          "type": "bytes32"
        },
        {
          "internalType": "address",
          "name": "account",
          "type": "address"
        }
      ],
      "name": "grantRole",
      "outputs": [],
      "stateMutability": "nonpayable",
      "type": "function"
    },
    {
      "inputs": [
        {
          "internalType": "bytes32",
          "name": "role",
          "type": "bytes32"
        },
        {
          "internalType": "address",
          "name": "account",
          "type": "address"
        }
      ],
      "name": "hasRole",
      "outputs": [
        {
          "internalType": "bool",
          "name": "",
          "type": "bool"
        }
      ],
      "stateMutability": "view",
      "type": "function",
      "constant": true
    },
    {
      "inputs": [],
      "name": "owner",
      "outputs": [
        {
          "internalType": "address",
          "name": "",
          "type": "address"
        }
      ],
      "stateMutability": "view",
      "type": "function",
      "constant": true
    },
    {
      "inputs": [
        {
          "internalType": "address",
          "name": "",
          "type": "address"
        }
      ],
      "name": "referrals",
      "outputs": [
        {
          "internalType": "bool",
          "name": "",
          "type": "bool"
        }
      ],
      "stateMutability": "view",
      "type": "function",
      "constant": true
    },
    {
      "inputs": [],
      "name": "renounceOwnership",
      "outputs": [],
      "stateMutability": "nonpayable",
      "type": "function"
    },
    {
      "inputs": [
        {
          "internalType": "bytes32",
          "name": "role",
          "type": "bytes32"
        },
        {
          "internalType": "address",
          "name": "account",
          "type": "address"
        }
      ],
      "name": "renounceRole",
      "outputs": [],
      "stateMutability": "nonpayable",
      "type": "function"
    },
    {
      "inputs": [
        {
          "internalType": "bytes32",
          "name": "role",
          "type": "bytes32"
        },
        {
          "internalType": "address",
          "name": "account",
          "type": "address"
        }
      ],
      "name": "revokeRole",
      "outputs": [],
      "stateMutability": "nonpayable",
      "type": "function"
    },
    {
      "inputs": [
        {
          "internalType": "bytes4",
          "name": "interfaceId",
          "type": "bytes4"
        }
      ],
      "name": "supportsInterface",
      "outputs": [
        {
          "internalType": "bool",
          "name": "",
          "type": "bool"
        }
      ],
      "stateMutability": "view",
      "type": "function",
      "constant": true
    },
    {
      "inputs": [
        {
          "internalType": "address",
          "name": "newOwner",
          "type": "address"
        }
      ],
      "name": "transferOwnership",
      "outputs": [],
      "stateMutability": "nonpayable",
      "type": "function"
    },
    {
      "inputs": [
        {
          "internalType": "uint256",
          "name": "_ratio",
          "type": "uint256"
        },
        {
          "internalType": "contract IERC20",
          "name": "_USDT",
          "type": "address"
        },
        {
          "internalType": "contract IERC20",
          "name": "_BitX",
          "type": "address"
        }
      ],
      "name": "__BitXSwap_init",
      "outputs": [],
      "stateMutability": "nonpayable",
      "type": "function"
    },
    {
      "inputs": [
        {
          "internalType": "address",
          "name": "_referral",
          "type": "address"
        }
      ],
      "name": "addReferral",
      "outputs": [],
      "stateMutability": "nonpayable",
      "type": "function"
    },
    {
      "inputs": [
        {
          "internalType": "address",
          "name": "_affliator",
          "type": "address"
        },
        {
          "internalType": "uint256",
          "name": "_amount",
          "type": "uint256"
        }
      ],
      "name": "swapAffiliate",
      "outputs": [
        {
          "internalType": "bool",
          "name": "",
          "type": "bool"
        }
      ],
      "stateMutability": "nonpayable",
      "type": "function"
    },
    {
      "inputs": [
        {
          "internalType": "uint256",
          "name": "_amount",
          "type": "uint256"
        }
      ],
      "name": "swap",
      "outputs": [
        {
          "internalType": "bool",
          "name": "",
          "type": "bool"
        }
      ],
      "stateMutability": "nonpayable",
      "type": "function"
    },
    {
      "inputs": [
        {
          "internalType": "uint256",
          "name": "_amount",
          "type": "uint256"
        }
      ],
      "name": "depositBitXToken",
      "outputs": [],
      "stateMutability": "nonpayable",
      "type": "function"
    },
    {
      "inputs": [],
      "name": "getBitXTokenBalance",
      "outputs": [
        {
          "internalType": "uint256",
          "name": "balance",
          "type": "uint256"
        }
      ],
      "stateMutability": "view",
      "type": "function",
      "constant": true
    },
    {
      "inputs": [
        {
          "internalType": "contract IERC20",
          "name": "_BitX",
          "type": "address"
        }
      ],
      "name": "withdrawBitX",
      "outputs": [
        {
          "internalType": "bool",
          "name": "",
          "type": "bool"
        }
      ],
      "stateMutability": "nonpayable",
      "type": "function"
    },
    {
      "inputs": [],
      "name": "stopTrading",
      "outputs": [],
      "stateMutability": "nonpayable",
      "type": "function"
    },
    {
      "inputs": [
        {
          "internalType": "uint256",
          "name": "_ratio",
          "type": "uint256"
        }
      ],
      "name": "changeRatio",
      "outputs": [],
      "stateMutability": "nonpayable",
      "type": "function"
    },
    {
      "inputs": [],
      "name": "getRatio",
      "outputs": [
        {
          "internalType": "uint256",
          "name": "",
          "type": "uint256"
        }
      ],
      "stateMutability": "view",
      "type": "function",
      "constant": true
    },
    {
      "inputs": [
        {
          "internalType": "uint256",
          "name": "_commissionRate",
          "type": "uint256"
        }
      ],
      "name": "changeComission",
      "outputs": [],
      "stateMutability": "nonpayable",
      "type": "function"
    },
    {
      "inputs": [],
      "name": "getComission",
      "outputs": [
        {
          "internalType": "uint256",
          "name": "",
          "type": "uint256"
        }
      ],
      "stateMutability": "view",
      "type": "function",
      "constant": true
    }
  ],
  "bytecode": "0x608060405234801561001057600080fd5b50611a8e806100206000396000f3fe608060405234801561001057600080fd5b50600436106101585760003560e01c806391d14854116100c3578063dd6d3ca71161007c578063dd6d3ca7146102e8578063e0f50bd8146102f0578063e8aca46a14610303578063ec1ebd7a14610316578063f2fde38b1461031e578063f6a332531461033157600080fd5b806391d148541461027157806394b918de146102845780639ca423b314610297578063a217fddf146102ba578063ae2f0a6f146102c2578063d547741f146102d557600080fd5b80634ce8d8a4116101155780634ce8d8a4146102045780635322888214610217578063715018a61461021f5780637185f1631461022757806375b238fc1461022f5780638da5cb5b1461025657600080fd5b806301ffc9a71461015d5780630f9c7e811461018557806311b8da001461019a578063248a9ca3146101ad5780632f2ff15d146101de57806336568abe146101f1575b600080fd5b61017061016b3660046117ac565b610344565b60405190151581526020015b60405180910390f35b610198610193366004611765565b61037b565b005b6101986101a8366004611765565b6103b3565b6101d06101bb366004611765565b60009081526097602052604090206001015490565b60405190815260200161017c565b6101986101ec36600461177d565b61049a565b6101986101ff36600461177d565b6104c5565b6101986102123660046117ec565b610543565b6101d061063b565b6101986106bc565b6101986106f2565b6101d07fa49807205ce4d355092ef5a8a18f56e8913cf4a201fbe287825b095693c2177581565b6033546040516001600160a01b03909116815260200161017c565b61017061027f36600461177d565b610754565b610170610292366004611765565b61077f565b6101706102a53660046116fe565b60ce6020526000908152604090205460ff1681565b6101d0600081565b6101706102d03660046116fe565b610a14565b6101986102e336600461177d565b610cb4565b60cc546101d0565b6101706102fe36600461171a565b610cda565b6101986103113660046116fe565b61108e565b60cb546101d0565b61019861032c3660046116fe565b6110dc565b61019861033f366004611765565b611177565b60006001600160e01b03198216637965db0b60e01b148061037557506301ffc9a760e01b6001600160e01b03198316145b92915050565b6033546001600160a01b031633146103ae5760405162461bcd60e51b81526004016103a590611947565b60405180910390fd5b60cc55565b6033546001600160a01b031633146103dd5760405162461bcd60e51b81526004016103a590611947565b60c9546040516323b872dd60e01b81526001600160a01b03909116906323b872dd90610411903390309086906004016118a2565b602060405180830381600087803b15801561042b57600080fd5b505af115801561043f573d6000803e3d6000fd5b505050506040513d601f19601f820116820180604052508101906104639190611745565b506040518181527f79b704a32544f12a677346065e16347b14c63f9babc65b59503eb542b535ae439060200160405180910390a150565b6000828152609760205260409020600101546104b681336111a8565b6104c0838361120c565b505050565b6001600160a01b03811633146105355760405162461bcd60e51b815260206004820152602f60248201527f416363657373436f6e74726f6c3a2063616e206f6e6c792072656e6f756e636560448201526e103937b632b9903337b91039b2b63360891b60648201526084016103a5565b61053f8282611292565b5050565b600054610100900460ff168061055c575060005460ff16155b6105785760405162461bcd60e51b81526004016103a5906118f9565b600054610100900460ff1615801561059a576000805461ffff19166101011790555b6105a26112f9565b6105aa611374565b6105b56000336113e3565b6105df7fa49807205ce4d355092ef5a8a18f56e8913cf4a201fbe287825b095693c217753361049a565b60cb84905560c980546001600160a01b038085166001600160a01b03199092169190911790915560ca80546001600160a81b03191691851691909117600160a01b1790558015610635576000805461ff00191690555b50505050565b60c9546040516370a0823160e01b81523060048201526000916001600160a01b0316906370a082319060240160206040518083038186803b15801561067f57600080fd5b505afa158015610693573d6000803e3d6000fd5b505050506040513d601f19601f820116820180604052508101906106b791906117d4565b905090565b6033546001600160a01b031633146106e65760405162461bcd60e51b81526004016103a590611947565b6106f060006113ed565b565b6033546001600160a01b0316331461071c5760405162461bcd60e51b81526004016103a590611947565b60ca805460ff60a01b191690556040517f2f52f4f16ece5e1dd274488a8ec73e0d6093a4fc012a01873a0b3283a704917290600090a1565b60009182526097602090815260408084206001600160a01b0393909316845291905290205460ff1690565b60ca54600090600160a01b900460ff1615156001146107db5760405162461bcd60e51b8152602060048201526018602482015277151c985919481a5cc81b9bdd081cdd185c9d1959081e595d60421b60448201526064016103a5565b60c9546040516370a0823160e01b815230600482015283916001600160a01b0316906370a082319060240160206040518083038186803b15801561081e57600080fd5b505afa158015610832573d6000803e3d6000fd5b505050506040513d601f19601f8201168201806040525081019061085691906117d4565b116108a35760405162461bcd60e51b815260206004820152601f60248201527f496e73756666696369656e7420416d6f756e7420696e20636f6e74726163740060448201526064016103a5565b60006108ba60cb548461143f90919063ffffffff16565b60ca549091506001600160a01b03166323b872dd336108e16033546001600160a01b031690565b846040518463ffffffff1660e01b8152600401610900939291906118a2565b602060405180830381600087803b15801561091a57600080fd5b505af115801561092e573d6000803e3d6000fd5b505050506040513d601f19601f820116820180604052508101906109529190611745565b5060c95460405163a9059cbb60e01b8152336004820152602481018590526001600160a01b039091169063a9059cbb90604401602060405180830381600087803b15801561099f57600080fd5b505af11580156109b3573d6000803e3d6000fd5b505050506040513d601f19601f820116820180604052508101906109d79190611745565b506040518381527f6badf30381ff2dc53789e35cf0a804727de8b0f5a08600e8c78d903a42e7efd19060200160405180910390a150600192915050565b6033546000906001600160a01b03163314610a415760405162461bcd60e51b81526004016103a590611947565b6040516370a0823160e01b81523060048201526000906001600160a01b038416906370a082319060240160206040518083038186803b158015610a8357600080fd5b505afa158015610a97573d6000803e3d6000fd5b505050506040513d601f19601f82011682018060405250810190610abb91906117d4565b11610afa5760405162461bcd60e51b815260206004820152600f60248201526e62616c616e6365206973207a65726f60881b60448201526064016103a5565b6040516370a0823160e01b815230600482018190526001600160a01b038416916323b872dd9190339084906370a082319060240160206040518083038186803b158015610b4657600080fd5b505afa158015610b5a573d6000803e3d6000fd5b505050506040513d601f19601f82011682018060405250810190610b7e91906117d4565b6040518463ffffffff1660e01b8152600401610b9c939291906118a2565b602060405180830381600087803b158015610bb657600080fd5b505af1158015610bca573d6000803e3d6000fd5b505050506040513d601f19601f82011682018060405250810190610bee9190611745565b506040516370a0823160e01b81523060048201527f47cee97cb7acd717b3c0aa1435d004cd5b3c8c57d70dbceb4e4458bbd60e39d49083906001600160a01b038216906370a082319060240160206040518083038186803b158015610c5257600080fd5b505afa158015610c66573d6000803e3d6000fd5b505050506040513d601f19601f82011682018060405250810190610c8a91906117d4565b604080516001600160a01b03909316835260208301919091520160405180910390a1506001919050565b600082815260976020526040902060010154610cd081336111a8565b6104c08383611292565b60ca54600090600160a01b900460ff161515600114610d365760405162461bcd60e51b8152602060048201526018602482015277151c985919481a5cc81b9bdd081cdd185c9d1959081e595d60421b60448201526064016103a5565b6001600160a01b038316600090815260ce602052604090205460ff161515600114610da35760405162461bcd60e51b815260206004820152601a60248201527f496e76616c696420726566657272616c2773206164647265737300000000000060448201526064016103a5565b60c9546040516370a0823160e01b815230600482015283916001600160a01b0316906370a082319060240160206040518083038186803b158015610de657600080fd5b505afa158015610dfa573d6000803e3d6000fd5b505050506040513d601f19601f82011682018060405250810190610e1e91906117d4565b11610e6b5760405162461bcd60e51b815260206004820152601f60248201527f496e73756666696369656e7420416d6f756e7420696e20636f6e74726163740060448201526064016103a5565b6000610e8260cb548461143f90919063ffffffff16565b9050600060648460cc54610e9691906119b4565b610ea09190611994565b60ca546040516323b872dd60e01b81529192506001600160a01b0316906323b872dd90610ed5903390899086906004016118a2565b602060405180830381600087803b158015610eef57600080fd5b505af1158015610f03573d6000803e3d6000fd5b505050506040513d601f19601f82011682018060405250810190610f279190611745565b50610f3281856119d3565b60ca549094506001600160a01b03166323b872dd33610f596033546001600160a01b031690565b856040518463ffffffff1660e01b8152600401610f78939291906118a2565b602060405180830381600087803b158015610f9257600080fd5b505af1158015610fa6573d6000803e3d6000fd5b505050506040513d601f19601f82011682018060405250810190610fca9190611745565b5060c95460405163a9059cbb60e01b8152336004820152602481018690526001600160a01b039091169063a9059cbb90604401602060405180830381600087803b15801561101757600080fd5b505af115801561102b573d6000803e3d6000fd5b505050506040513d601f19601f8201168201806040525081019061104f9190611745565b506040518481527f6badf30381ff2dc53789e35cf0a804727de8b0f5a08600e8c78d903a42e7efd19060200160405180910390a1506001949350505050565b6033546001600160a01b031633146110b85760405162461bcd60e51b81526004016103a590611947565b6001600160a01b0316600090815260ce60205260409020805460ff19166001179055565b6033546001600160a01b031633146111065760405162461bcd60e51b81526004016103a590611947565b6001600160a01b03811661116b5760405162461bcd60e51b815260206004820152602660248201527f4f776e61626c653a206e6577206f776e657220697320746865207a65726f206160448201526564647265737360d01b60648201526084016103a5565b611174816113ed565b50565b7fa49807205ce4d355092ef5a8a18f56e8913cf4a201fbe287825b095693c217756111a281336111a8565b5060cb55565b6111b28282610754565b61053f576111ca816001600160a01b03166014611452565b6111d5836020611452565b6040516020016111e692919061182d565b60408051601f198184030181529082905262461bcd60e51b82526103a5916004016118c6565b6112168282610754565b61053f5760008281526097602090815260408083206001600160a01b03851684529091529020805460ff1916600117905561124e3390565b6001600160a01b0316816001600160a01b0316837f2f8788117e7eff1d82e926ec794901d17c78024a50270940304540a733656f0d60405160405180910390a45050565b61129c8282610754565b1561053f5760008281526097602090815260408083206001600160a01b0385168085529252808320805460ff1916905551339285917ff6391f5c32d9c69d2a47ea670b442974b53935d1edc7fd64eb21e047a839171b9190a45050565b600054610100900460ff1680611312575060005460ff16155b61132e5760405162461bcd60e51b81526004016103a5906118f9565b600054610100900460ff16158015611350576000805461ffff19166101011790555b611358611634565b61136061169e565b8015611174576000805461ff001916905550565b600054610100900460ff168061138d575060005460ff16155b6113a95760405162461bcd60e51b81526004016103a5906118f9565b600054610100900460ff161580156113cb576000805461ffff19166101011790555b6113d3611634565b6113db611634565b611360611634565b61053f828261120c565b603380546001600160a01b038381166001600160a01b0319831681179093556040519116919082907f8be0079c531659141344cd1fd0a4f28419497f9722a3daafe3b4186f6b6457e090600090a35050565b600061144b82846119b4565b9392505050565b606060006114618360026119b4565b61146c90600261197c565b67ffffffffffffffff81111561149257634e487b7160e01b600052604160045260246000fd5b6040519080825280601f01601f1916602001820160405280156114bc576020820181803683370190505b509050600360fc1b816000815181106114e557634e487b7160e01b600052603260045260246000fd5b60200101906001600160f81b031916908160001a905350600f60fb1b8160018151811061152257634e487b7160e01b600052603260045260246000fd5b60200101906001600160f81b031916908160001a90535060006115468460026119b4565b61155190600161197c565b90505b60018111156115e5576f181899199a1a9b1b9c1cb0b131b232b360811b85600f166010811061159357634e487b7160e01b600052603260045260246000fd5b1a60f81b8282815181106115b757634e487b7160e01b600052603260045260246000fd5b60200101906001600160f81b031916908160001a90535060049490941c936115de81611a16565b9050611554565b50831561144b5760405162461bcd60e51b815260206004820181905260248201527f537472696e67733a20686578206c656e67746820696e73756666696369656e7460448201526064016103a5565b600054610100900460ff168061164d575060005460ff16155b6116695760405162461bcd60e51b81526004016103a5906118f9565b600054610100900460ff16158015611360576000805461ffff19166101011790558015611174576000805461ff001916905550565b600054610100900460ff16806116b7575060005460ff16155b6116d35760405162461bcd60e51b81526004016103a5906118f9565b600054610100900460ff161580156116f5576000805461ffff19166101011790555b611360336113ed565b60006020828403121561170f578081fd5b813561144b81611a43565b6000806040838503121561172c578081fd5b823561173781611a43565b946020939093013593505050565b600060208284031215611756578081fd5b8151801515811461144b578182fd5b600060208284031215611776578081fd5b5035919050565b6000806040838503121561178f578182fd5b8235915060208301356117a181611a43565b809150509250929050565b6000602082840312156117bd578081fd5b81356001600160e01b03198116811461144b578182fd5b6000602082840312156117e5578081fd5b5051919050565b600080600060608486031215611800578081fd5b83359250602084013561181281611a43565b9150604084013561182281611a43565b809150509250925092565b7f416363657373436f6e74726f6c3a206163636f756e74200000000000000000008152600083516118658160178501602088016119ea565b7001034b99036b4b9b9b4b733903937b6329607d1b60179184019182015283516118968160288401602088016119ea565b01602801949350505050565b6001600160a01b039384168152919092166020820152604081019190915260600190565b60208152600082518060208401526118e58160408501602087016119ea565b601f01601f19169190910160400192915050565b6020808252602e908201527f496e697469616c697a61626c653a20636f6e747261637420697320616c72656160408201526d191e481a5b9a5d1a585b1a5e995960921b606082015260800190565b6020808252818101527f4f776e61626c653a2063616c6c6572206973206e6f7420746865206f776e6572604082015260600190565b6000821982111561198f5761198f611a2d565b500190565b6000826119af57634e487b7160e01b81526012600452602481fd5b500490565b60008160001904831182151516156119ce576119ce611a2d565b500290565b6000828210156119e5576119e5611a2d565b500390565b60005b83811015611a055781810151838201526020016119ed565b838111156106355750506000910152565b600081611a2557611a25611a2d565b506000190190565b634e487b7160e01b600052601160045260246000fd5b6001600160a01b038116811461117457600080fdfea2646970667358221220e4b8535af463daad4dd4ce0886fddb82a20eec791e63bbd58cd9d31f651cd9d364736f6c63430008040033",
  "immutableReferences": {},
  "source": "// SPDX-License-Identifier: MIT\npragma solidity 0.8.4;\n\nimport \"@openzeppelin/contracts/token/ERC20/IERC20.sol\";\nimport \"@openzeppelin/contracts-upgradeable/access/OwnableUpgradeable.sol\";\nimport \"@openzeppelin/contracts-upgradeable/access/AccessControlUpgradeable.sol\";\nimport \"@openzeppelin/contracts/utils/math/SafeMath.sol\";\n\ncontract BitXGoldSwap is OwnableUpgradeable, AccessControlUpgradeable {\n    using SafeMath for uint256;\n    bytes32 public constant ADMIN_ROLE = keccak256(\"ADMIN_ROLE\");\n\n    IERC20 BitX;\n    IERC20 USDT;\n    bool initialized;\n    uint256 ratio;\n    uint256 commissionRate;\n    address private _owner;\n    mapping(address => bool) public referrals;\n\n    event Trade(uint256 amount);\n    event AddMoreRewardToken(uint256 amount);\n    event DepositBitx(uint256 amount);\n    event StopTrade();\n    event Claim(IERC20 token, uint256 amount);\n\n    /**\n     * @dev BitXSwap Upgradable initializer\n     * @param _ratio _ratio USDT & BitX ratio\n     */\n\n    function __BitXSwap_init(\n        uint256 _ratio,\n        IERC20 _USDT,\n        IERC20 _BitX\n    ) external initializer {\n        __Ownable_init();\n        __AccessControl_init();\n        _setupRole(DEFAULT_ADMIN_ROLE, _msgSender());\n        grantRole(ADMIN_ROLE, _msgSender());\n        ratio = _ratio;\n        BitX = _BitX;\n        USDT = _USDT;\n        initialized = true;\n    }\n\n    /**\n     * @dev add referral\n     * @param _referral address of referral\n     */\n\n    function addReferral(address _referral) public onlyOwner {\n        referrals[_referral] = true;\n    }\n\n    /**\n     * @dev Swap USDT and BitX\n     * @param _affliator affiliator's address\n     * @param _amount Amount to be transfered in contract\n     */\n\n    function swapAffiliate(address _affliator, uint256 _amount) public returns (bool) {\n        require(initialized == true, \"Trade is not started yet\");\n        require(referrals[_affliator] == true, \"Invalid referral's address\");\n        require(\n            (BitX.balanceOf(address(this)) > _amount),\n            \"Insufficient Amount in contract\"\n        );\n        uint256 rewardamount = _amount.mul(ratio);\n        uint256 usdt_amount = (commissionRate * _amount) / 100;\n        USDT.transferFrom(msg.sender, _affliator, usdt_amount);\n        _amount = _amount - usdt_amount;\n        USDT.transferFrom(msg.sender, owner(), rewardamount);\n        BitX.transfer(msg.sender, _amount);\n        emit Trade(_amount);\n        return true;\n    }\n\n    /**\n     * @dev Swap USDT and BitX\n     * @param _amount Amount to be transfered in contract\n     */\n\n    function swap(uint256 _amount) public returns (bool) {\n        require(initialized == true, \"Trade is not started yet\");\n        require(\n            (BitX.balanceOf(address(this)) > _amount),\n            \"Insufficient Amount in contract\"\n        );\n        uint256 rewardamount = _amount.mul(ratio);\n        USDT.transferFrom(msg.sender, owner(), rewardamount);\n        BitX.transfer(msg.sender, _amount);\n        emit Trade(_amount);\n        return true;\n    }\n\n    /**\n     * @dev transfer bitx tokens to contract\n     * @param _amount amount to be transfered\n     */\n\n    function depositBitXToken(uint256 _amount) public onlyOwner {\n        BitX.transferFrom(msg.sender, address(this), _amount);\n        emit DepositBitx(_amount);\n    }\n\n    /**\n     * @dev Contract balance of BitX Token\n     */\n\n    function getBitXTokenBalance() public view returns (uint256 balance) {\n        return BitX.balanceOf(address(this));\n    }\n\n    /**\n     * @dev Withdraw BitX all the tokens from the contract\n     * @param _BitX contract address of BitX Token\n     */\n\n    function withdrawBitX(IERC20 _BitX) public onlyOwner returns (bool) {\n        require(_BitX.balanceOf(address(this)) > 0, \"balance is zero\");\n        _BitX.transferFrom(\n            address(this),\n            msg.sender,\n            _BitX.balanceOf(address(this))\n        );\n        emit Claim(_BitX, _BitX.balanceOf(address(this)));\n        return true;\n    }\n\n    /**\n     * @dev Stop trading\n     */\n\n    function stopTrading() public onlyOwner {\n        initialized = false;\n        emit StopTrade();\n    }\n\n    /**\n     * @dev change the ratio\n     * @param _ratio USDT & BitX ratio\n     */\n\n    function changeRatio(uint256 _ratio) public onlyRole(ADMIN_ROLE) {\n        ratio = _ratio;\n    }\n\n    /**\n     * @dev Get the ratio\n     */\n\n    function getRatio() public view returns (uint256) {\n        return ratio;\n    }\n\n    /**\n     * @dev change the comission ratio\n     * @param _commissionRate USDT & BitX ratio\n     */\n\n    function changeComission(uint256 _commissionRate) public onlyOwner {\n        commissionRate = _commissionRate;\n    }\n\n    /**\n     * @dev Get the commission Rate\n     */\n\n    function getComission() public view returns (uint256) {\n        return commissionRate;\n    }\n}\n",
  "sourcePath": "/Users/talhajaami/Desktop/KwikTrustMainnet/contracts/BitXGoldSwap.sol",
  "compiler": {
    "name": "solc",
    "version": "0.8.4+commit.c7e474f2.Emscripten.clang"
  },
  "schemaVersion": "3.4.10",
  "updatedAt": "2023-01-18T19:34:08.467Z",
  "networkType": "ethereum",
  "devdoc": {
    "kind": "dev",
    "methods": {
      "__BitXSwap_init(uint256,address,address)": {
        "details": "BitXSwap Upgradable initializer",
        "params": {
          "_ratio": "_ratio USDT & BitX ratio"
        }
      },
      "addReferral(address)": {
        "details": "add referral",
        "params": {
          "_referral": "address of referral"
        }
      },
      "changeComission(uint256)": {
        "details": "change the comission ratio",
        "params": {
          "_commissionRate": "USDT & BitX ratio"
        }
      },
      "changeRatio(uint256)": {
        "details": "change the ratio",
        "params": {
          "_ratio": "USDT & BitX ratio"
        }
      },
      "depositBitXToken(uint256)": {
        "details": "transfer bitx tokens to contract",
        "params": {
          "_amount": "amount to be transfered"
        }
      },
      "getBitXTokenBalance()": {
        "details": "Contract balance of BitX Token"
      },
      "getComission()": {
        "details": "Get the commission Rate"
      },
      "getRatio()": {
        "details": "Get the ratio"
      },
      "getRoleAdmin(bytes32)": {
        "details": "Returns the admin role that controls `role`. See {grantRole} and {revokeRole}. To change a role's admin, use {_setRoleAdmin}."
      },
      "grantRole(bytes32,address)": {
        "details": "Grants `role` to `account`. If `account` had not been already granted `role`, emits a {RoleGranted} event. Requirements: - the caller must have ``role``'s admin role."
      },
      "hasRole(bytes32,address)": {
        "details": "Returns `true` if `account` has been granted `role`."
      },
      "owner()": {
        "details": "Returns the address of the current owner."
      },
      "renounceOwnership()": {
        "details": "Leaves the contract without owner. It will not be possible to call `onlyOwner` functions anymore. Can only be called by the current owner. NOTE: Renouncing ownership will leave the contract without an owner, thereby removing any functionality that is only available to the owner."
      },
      "renounceRole(bytes32,address)": {
        "details": "Revokes `role` from the calling account. Roles are often managed via {grantRole} and {revokeRole}: this function's purpose is to provide a mechanism for accounts to lose their privileges if they are compromised (such as when a trusted device is misplaced). If the calling account had been granted `role`, emits a {RoleRevoked} event. Requirements: - the caller must be `account`."
      },
      "revokeRole(bytes32,address)": {
        "details": "Revokes `role` from `account`. If `account` had been granted `role`, emits a {RoleRevoked} event. Requirements: - the caller must have ``role``'s admin role."
      },
      "stopTrading()": {
        "details": "Stop trading"
      },
      "supportsInterface(bytes4)": {
        "details": "See {IERC165-supportsInterface}."
      },
      "swap(uint256)": {
        "details": "Swap USDT and BitX",
        "params": {
          "_amount": "Amount to be transfered in contract"
        }
      },
      "swapAffiliate(address,uint256)": {
        "details": "Swap USDT and BitX",
        "params": {
          "_affliator": "affiliator's address",
          "_amount": "Amount to be transfered in contract"
        }
      },
      "transferOwnership(address)": {
        "details": "Transfers ownership of the contract to a new account (`newOwner`). Can only be called by the current owner."
      },
      "withdrawBitX(address)": {
        "details": "Withdraw BitX all the tokens from the contract",
        "params": {
          "_BitX": "contract address of BitX Token"
        }
      }
    },
    "version": 1
  },
  "userdoc": {
    "kind": "user",
    "methods": {},
    "version": 1
  }
}