{
  "_format": "hh-sol-artifact-1",
  "contractName": "USDTToken",
  "sourceName": "src/backend/contracts/USDTToken.sol",
  "address": "0x4d43f26171280c0475Ad0Ce67F4a280850F4F22c",
  "abi": [
    {
      "inputs": [],
      "stateMutability": "nonpayable",
      "type": "constructor"
    },
    {
      "anonymous": false,
      "inputs": [
        {
          "indexed": true,
          "internalType": "address",
          "name": "owner",
          "type": "address"
        },
        {
          "indexed": true,
          "internalType": "address",
          "name": "spender",
          "type": "address"
        },
        {
          "indexed": false,
          "internalType": "uint256",
          "name": "value",
          "type": "uint256"
        }
      ],
      "name": "Approval",
      "type": "event"
    },
    {
      "anonymous": false,
      "inputs": [
        {
          "indexed": true,
          "internalType": "address",
          "name": "from",
          "type": "address"
        },
        {
          "indexed": true,
          "internalType": "address",
          "name": "to",
          "type": "address"
        },
        {
          "indexed": false,
          "internalType": "uint256",
          "name": "value",
          "type": "uint256"
        }
      ],
      "name": "Transfer",
      "type": "event"
    },
    {
      "anonymous": false,
      "inputs": [
        {
          "indexed": false,
          "internalType": "uint256",
          "name": "id",
          "type": "uint256"
        }
      ],
      "name": "handleMint",
      "type": "event"
    },
    {
      "inputs": [
        {
          "internalType": "address",
          "name": "owner",
          "type": "address"
        },
        {
          "internalType": "address",
          "name": "spender",
          "type": "address"
        }
      ],
      "name": "allowance",
      "outputs": [
        {
          "internalType": "uint256",
          "name": "",
          "type": "uint256"
        }
      ],
      "stateMutability": "view",
      "type": "function"
    },
    {
      "inputs": [
        {
          "internalType": "address",
          "name": "spender",
          "type": "address"
        },
        {
          "internalType": "uint256",
          "name": "amount",
          "type": "uint256"
        }
      ],
      "name": "approve",
      "outputs": [
        {
          "internalType": "bool",
          "name": "",
          "type": "bool"
        }
      ],
      "stateMutability": "nonpayable",
      "type": "function"
    },
    {
      "inputs": [
        {
          "internalType": "address",
          "name": "account",
          "type": "address"
        }
      ],
      "name": "balanceOf",
      "outputs": [
        {
          "internalType": "uint256",
          "name": "",
          "type": "uint256"
        }
      ],
      "stateMutability": "view",
      "type": "function"
    },
    {
      "inputs": [],
      "name": "decimals",
      "outputs": [
        {
          "internalType": "uint8",
          "name": "",
          "type": "uint8"
        }
      ],
      "stateMutability": "view",
      "type": "function"
    },
    {
      "inputs": [
        {
          "internalType": "address",
          "name": "spender",
          "type": "address"
        },
        {
          "internalType": "uint256",
          "name": "subtractedValue",
          "type": "uint256"
        }
      ],
      "name": "decreaseAllowance",
      "outputs": [
        {
          "internalType": "bool",
          "name": "",
          "type": "bool"
        }
      ],
      "stateMutability": "nonpayable",
      "type": "function"
    },
    {
      "inputs": [
        {
          "internalType": "address",
          "name": "spender",
          "type": "address"
        },
        {
          "internalType": "uint256",
          "name": "addedValue",
          "type": "uint256"
        }
      ],
      "name": "increaseAllowance",
      "outputs": [
        {
          "internalType": "bool",
          "name": "",
          "type": "bool"
        }
      ],
      "stateMutability": "nonpayable",
      "type": "function"
    },
    {
      "inputs": [
        {
          "internalType": "uint256",
          "name": "_amount",
          "type": "uint256"
        }
      ],
      "name": "mint",
      "outputs": [
        {
          "internalType": "uint256",
          "name": "",
          "type": "uint256"
        }
      ],
      "stateMutability": "nonpayable",
      "type": "function"
    },
    {
      "inputs": [],
      "name": "name",
      "outputs": [
        {
          "internalType": "string",
          "name": "",
          "type": "string"
        }
      ],
      "stateMutability": "view",
      "type": "function"
    },
    {
      "inputs": [],
      "name": "symbol",
      "outputs": [
        {
          "internalType": "string",
          "name": "",
          "type": "string"
        }
      ],
      "stateMutability": "view",
      "type": "function"
    },
    {
      "inputs": [],
      "name": "tokenId",
      "outputs": [
        {
          "internalType": "uint256",
          "name": "",
          "type": "uint256"
        }
      ],
      "stateMutability": "view",
      "type": "function"
    },
    {
      "inputs": [],
      "name": "totalSupply",
      "outputs": [
        {
          "internalType": "uint256",
          "name": "",
          "type": "uint256"
        }
      ],
      "stateMutability": "view",
      "type": "function"
    },
    {
      "inputs": [
        {
          "internalType": "address",
          "name": "to",
          "type": "address"
        },
        {
          "internalType": "uint256",
          "name": "amount",
          "type": "uint256"
        }
      ],
      "name": "transfer",
      "outputs": [
        {
          "internalType": "bool",
          "name": "",
          "type": "bool"
        }
      ],
      "stateMutability": "nonpayable",
      "type": "function"
    },
    {
      "inputs": [
        {
          "internalType": "address",
          "name": "from",
          "type": "address"
        },
        {
          "internalType": "address",
          "name": "to",
          "type": "address"
        },
        {
          "internalType": "uint256",
          "name": "amount",
          "type": "uint256"
        }
      ],
      "name": "transferFrom",
      "outputs": [
        {
          "internalType": "bool",
          "name": "",
          "type": "bool"
        }
      ],
      "stateMutability": "nonpayable",
      "type": "function"
    }
  ],
  "bytecode": "0x608060405260006005553480156200001657600080fd5b50604080518082018252600a8152692aa9a22a102a37b5b2b760b11b6020808301918252835180850190945260048452631554d11560e21b90840152815191929162000065916003916200018b565b5080516200007b9060049060208401906200018b565b5050506200009d336c0c9f2c9cd04674edea40000000620000a360201b60201c565b62000293565b6001600160a01b038216620000fe5760405162461bcd60e51b815260206004820152601f60248201527f45524332303a206d696e7420746f20746865207a65726f206164647265737300604482015260640160405180910390fd5b806002600082825462000112919062000231565b90915550506001600160a01b038216600090815260208190526040812080548392906200014190849062000231565b90915550506040518181526001600160a01b038316906000907fddf252ad1be2c89b69c2b068fc378daa952ba7f163c4a11628f55a4df523b3ef9060200160405180910390a35050565b828054620001999062000256565b90600052602060002090601f016020900481019282620001bd576000855562000208565b82601f10620001d857805160ff191683800117855562000208565b8280016001018555821562000208579182015b8281111562000208578251825591602001919060010190620001eb565b50620002169291506200021a565b5090565b5b808211156200021657600081556001016200021b565b600082198211156200025157634e487b7160e01b81526011600452602481fd5b500190565b600181811c908216806200026b57607f821691505b602082108114156200028d57634e487b7160e01b600052602260045260246000fd5b50919050565b610a4480620002a36000396000f3fe608060405234801561001057600080fd5b50600436106100cf5760003560e01c8063395093511161008c578063a0712d6811610066578063a0712d681461019a578063a457c2d7146101ad578063a9059cbb146101c0578063dd62ed3e146101d357600080fd5b8063395093511461015657806370a082311461016957806395d89b411461019257600080fd5b806306fdde03146100d4578063095ea7b3146100f257806317d70f7c1461011557806318160ddd1461012c57806323b872dd14610134578063313ce56714610147575b600080fd5b6100dc6101e6565b6040516100e99190610937565b60405180910390f35b6101056101003660046108f6565b610278565b60405190151581526020016100e9565b61011e60055481565b6040519081526020016100e9565b60025461011e565b6101056101423660046108bb565b610290565b604051601281526020016100e9565b6101056101643660046108f6565b6102b4565b61011e610177366004610868565b6001600160a01b031660009081526020819052604090205490565b6100dc6102d6565b61011e6101a836600461091f565b6102e5565b6101056101bb3660046108f6565b610348565b6101056101ce3660046108f6565b6103c8565b61011e6101e1366004610889565b6103d6565b6060600380546101f5906109a2565b80601f0160208091040260200160405190810160405280929190818152602001828054610221906109a2565b801561026e5780601f106102435761010080835404028352916020019161026e565b820191906000526020600020905b81548152906001019060200180831161025157829003601f168201915b5050505050905090565b600033610286818585610401565b5060019392505050565b60003361029e858285610525565b6102a985858561059f565b506001949350505050565b6000336102868185856102c783836103d6565b6102d1919061098a565b610401565b6060600480546101f5906109a2565b60058054600091826102f6836109dd565b9190505550610305338361076d565b7f2b70c17da28a1e45fff1d4d290ee915e89165a5d4bda819e8c424452624f18be60055460405161033891815260200190565b60405180910390a1505060055490565b6000338161035682866103d6565b9050838110156103bb5760405162461bcd60e51b815260206004820152602560248201527f45524332303a2064656372656173656420616c6c6f77616e63652062656c6f77604482015264207a65726f60d81b60648201526084015b60405180910390fd5b6102a98286868403610401565b60003361028681858561059f565b6001600160a01b03918216600090815260016020908152604080832093909416825291909152205490565b6001600160a01b0383166104635760405162461bcd60e51b8152602060048201526024808201527f45524332303a20617070726f76652066726f6d20746865207a65726f206164646044820152637265737360e01b60648201526084016103b2565b6001600160a01b0382166104c45760405162461bcd60e51b815260206004820152602260248201527f45524332303a20617070726f766520746f20746865207a65726f206164647265604482015261737360f01b60648201526084016103b2565b6001600160a01b0383811660008181526001602090815260408083209487168084529482529182902085905590518481527f8c5be1e5ebec7d5bd14f71427d1e84f3dd0314c0f7b2291e5b200ac8c7c3b925910160405180910390a3505050565b600061053184846103d6565b90506000198114610599578181101561058c5760405162461bcd60e51b815260206004820152601d60248201527f45524332303a20696e73756666696369656e7420616c6c6f77616e636500000060448201526064016103b2565b6105998484848403610401565b50505050565b6001600160a01b0383166106035760405162461bcd60e51b815260206004820152602560248201527f45524332303a207472616e736665722066726f6d20746865207a65726f206164604482015264647265737360d81b60648201526084016103b2565b6001600160a01b0382166106655760405162461bcd60e51b815260206004820152602360248201527f45524332303a207472616e7366657220746f20746865207a65726f206164647260448201526265737360e81b60648201526084016103b2565b6001600160a01b038316600090815260208190526040902054818110156106dd5760405162461bcd60e51b815260206004820152602660248201527f45524332303a207472616e7366657220616d6f756e7420657863656564732062604482015265616c616e636560d01b60648201526084016103b2565b6001600160a01b0380851660009081526020819052604080822085850390559185168152908120805484929061071490849061098a565b92505081905550826001600160a01b0316846001600160a01b03167fddf252ad1be2c89b69c2b068fc378daa952ba7f163c4a11628f55a4df523b3ef8460405161076091815260200190565b60405180910390a3610599565b6001600160a01b0382166107c35760405162461bcd60e51b815260206004820152601f60248201527f45524332303a206d696e7420746f20746865207a65726f20616464726573730060448201526064016103b2565b80600260008282546107d5919061098a565b90915550506001600160a01b0382166000908152602081905260408120805483929061080290849061098a565b90915550506040518181526001600160a01b038316906000907fddf252ad1be2c89b69c2b068fc378daa952ba7f163c4a11628f55a4df523b3ef9060200160405180910390a35050565b80356001600160a01b038116811461086357600080fd5b919050565b600060208284031215610879578081fd5b6108828261084c565b9392505050565b6000806040838503121561089b578081fd5b6108a48361084c565b91506108b26020840161084c565b90509250929050565b6000806000606084860312156108cf578081fd5b6108d88461084c565b92506108e66020850161084c565b9150604084013590509250925092565b60008060408385031215610908578182fd5b6109118361084c565b946020939093013593505050565b600060208284031215610930578081fd5b5035919050565b6000602080835283518082850152825b8181101561096357858101830151858201604001528201610947565b818111156109745783604083870101525b50601f01601f1916929092016040019392505050565b6000821982111561099d5761099d6109f8565b500190565b600181811c908216806109b657607f821691505b602082108114156109d757634e487b7160e01b600052602260045260246000fd5b50919050565b60006000198214156109f1576109f16109f8565b5060010190565b634e487b7160e01b600052601160045260246000fdfea2646970667358221220fe5a8af4044b91409a2581b5c1a9bc27e5413b0905a162416adcb29eedad630664736f6c63430008040033",
  "linkReferences": {},
  "deployedLinkReferences": {}
}